{
  "_format": "hh-sol-artifact-1",
  "contractName": "CallOracle",
  "sourceName": "contracts/CallOracle.sol",
  "abi": [
    {
      "inputs": [
        {
          "internalType": "address payable",
          "name": "_tellorAddress",
          "type": "address"
        }
      ],
      "stateMutability": "nonpayable",
      "type": "constructor"
    },
    {
      "inputs": [
        {
          "internalType": "uint256",
          "name": "maxTime",
          "type": "uint256"
        }
      ],
      "name": "getBtcSpotPrice",
      "outputs": [
        {
          "internalType": "uint256",
          "name": "",
          "type": "uint256"
        }
      ],
      "stateMutability": "view",
      "type": "function"
    },
    {
      "inputs": [
        {
          "internalType": "bytes32",
          "name": "_queryId",
          "type": "bytes32"
        },
        {
          "internalType": "uint256",
          "name": "_timestamp",
          "type": "uint256"
        }
      ],
      "name": "getDataAfter",
      "outputs": [
        {
          "internalType": "bytes",
          "name": "_value",
          "type": "bytes"
        },
        {
          "internalType": "uint256",
          "name": "_timestampRetrieved",
          "type": "uint256"
        }
      ],
      "stateMutability": "view",
      "type": "function"
    },
    {
      "inputs": [
        {
          "internalType": "bytes32",
          "name": "_queryId",
          "type": "bytes32"
        },
        {
          "internalType": "uint256",
          "name": "_timestamp",
          "type": "uint256"
        }
      ],
      "name": "getDataBefore",
      "outputs": [
        {
          "internalType": "bytes",
          "name": "_value",
          "type": "bytes"
        },
        {
          "internalType": "uint256",
          "name": "_timestampRetrieved",
          "type": "uint256"
        }
      ],
      "stateMutability": "view",
      "type": "function"
    },
    {
      "inputs": [
        {
          "internalType": "bytes32",
          "name": "_queryId",
          "type": "bytes32"
        },
        {
          "internalType": "uint256",
          "name": "_timestamp",
          "type": "uint256"
        }
      ],
      "name": "getIndexForDataAfter",
      "outputs": [
        {
          "internalType": "bool",
          "name": "_found",
          "type": "bool"
        },
        {
          "internalType": "uint256",
          "name": "_index",
          "type": "uint256"
        }
      ],
      "stateMutability": "view",
      "type": "function"
    },
    {
      "inputs": [
        {
          "internalType": "bytes32",
          "name": "_queryId",
          "type": "bytes32"
        },
        {
          "internalType": "uint256",
          "name": "_timestamp",
          "type": "uint256"
        }
      ],
      "name": "getIndexForDataBefore",
      "outputs": [
        {
          "internalType": "bool",
          "name": "_found",
          "type": "bool"
        },
        {
          "internalType": "uint256",
          "name": "_index",
          "type": "uint256"
        }
      ],
      "stateMutability": "view",
      "type": "function"
    },
    {
      "inputs": [
        {
          "internalType": "bytes32",
          "name": "_queryId",
          "type": "bytes32"
        },
        {
          "internalType": "uint256",
          "name": "_timestamp",
          "type": "uint256"
        },
        {
          "internalType": "uint256",
          "name": "_maxAge",
          "type": "uint256"
        },
        {
          "internalType": "uint256",
          "name": "_maxCount",
          "type": "uint256"
        }
      ],
      "name": "getMultipleValuesBefore",
      "outputs": [
        {
          "internalType": "bytes[]",
          "name": "_values",
          "type": "bytes[]"
        },
        {
          "internalType": "uint256[]",
          "name": "_timestamps",
          "type": "uint256[]"
        }
      ],
      "stateMutability": "view",
      "type": "function"
    },
    {
      "inputs": [
        {
          "internalType": "bytes32",
          "name": "_queryId",
          "type": "bytes32"
        }
      ],
      "name": "getNewValueCountbyQueryId",
      "outputs": [
        {
          "internalType": "uint256",
          "name": "",
          "type": "uint256"
        }
      ],
      "stateMutability": "view",
      "type": "function"
    },
    {
      "inputs": [
        {
          "internalType": "bytes32",
          "name": "_queryId",
          "type": "bytes32"
        },
        {
          "internalType": "uint256",
          "name": "_timestamp",
          "type": "uint256"
        }
      ],
      "name": "getReporterByTimestamp",
      "outputs": [
        {
          "internalType": "address",
          "name": "",
          "type": "address"
        }
      ],
      "stateMutability": "view",
      "type": "function"
    },
    {
      "inputs": [
        {
          "internalType": "bytes32",
          "name": "_queryId",
          "type": "bytes32"
        },
        {
          "internalType": "uint256",
          "name": "_index",
          "type": "uint256"
        }
      ],
      "name": "getTimestampbyQueryIdandIndex",
      "outputs": [
        {
          "internalType": "uint256",
          "name": "",
          "type": "uint256"
        }
      ],
      "stateMutability": "view",
      "type": "function"
    },
    {
      "inputs": [],
      "name": "idMappingContract",
      "outputs": [
        {
          "internalType": "contract IMappingContract",
          "name": "",
          "type": "address"
        }
      ],
      "stateMutability": "view",
      "type": "function"
    },
    {
      "inputs": [
        {
          "internalType": "bytes32",
          "name": "_queryId",
          "type": "bytes32"
        },
        {
          "internalType": "uint256",
          "name": "_timestamp",
          "type": "uint256"
        }
      ],
      "name": "isInDispute",
      "outputs": [
        {
          "internalType": "bool",
          "name": "",
          "type": "bool"
        }
      ],
      "stateMutability": "view",
      "type": "function"
    },
    {
      "inputs": [
        {
          "internalType": "bytes32",
          "name": "_queryId",
          "type": "bytes32"
        },
        {
          "internalType": "uint256",
          "name": "_timestamp",
          "type": "uint256"
        }
      ],
      "name": "retrieveData",
      "outputs": [
        {
          "internalType": "bytes",
          "name": "",
          "type": "bytes"
        }
      ],
      "stateMutability": "view",
      "type": "function"
    },
    {
      "inputs": [
        {
          "internalType": "address",
          "name": "_addy",
          "type": "address"
        }
      ],
      "name": "setIdMappingContract",
      "outputs": [],
      "stateMutability": "nonpayable",
      "type": "function"
    },
    {
      "inputs": [],
      "name": "tellor",
      "outputs": [
        {
          "internalType": "contract ITellor",
          "name": "",
          "type": "address"
        }
      ],
      "stateMutability": "view",
      "type": "function"
    },
    {
      "inputs": [
        {
          "internalType": "bytes32",
          "name": "_id",
          "type": "bytes32"
        }
      ],
      "name": "valueFor",
      "outputs": [
        {
          "internalType": "int256",
          "name": "_value",
          "type": "int256"
        },
        {
          "internalType": "uint256",
          "name": "_timestamp",
          "type": "uint256"
        },
        {
          "internalType": "uint256",
          "name": "_statusCode",
          "type": "uint256"
        }
      ],
      "stateMutability": "view",
      "type": "function"
    }
  ],
  "bytecode": "0x60806040523480156200001157600080fd5b50604051620020cf380380620020cf8339818101604052810190620000379190620000ea565b80806000806101000a81548173ffffffffffffffffffffffffffffffffffffffff021916908373ffffffffffffffffffffffffffffffffffffffff16021790555050506200011c565b600080fd5b600073ffffffffffffffffffffffffffffffffffffffff82169050919050565b6000620000b28262000085565b9050919050565b620000c481620000a5565b8114620000d057600080fd5b50565b600081519050620000e481620000b9565b92915050565b60006020828403121562000103576200010262000080565b5b60006200011384828501620000d3565b91505092915050565b611fa3806200012c6000396000f3fe608060405234801561001057600080fd5b50600436106100f55760003560e01c806380bc15f011610097578063e07c548611610066578063e07c5486146102d5578063f66f49c314610305578063f78eea8314610336578063fcd4a54614610368576100f5565b806380bc15f014610214578063a792765f14610244578063c5958af914610275578063ce5e11bf146102a5576100f5565b80632af8aae0116100d35780632af8aae01461016557806344e87f911461018357806364ee3c6d146101b357806377b03e0d146101e4576100f5565b8063193b505b146100fa5780631959ad5b146101165780632944908514610134575b600080fd5b610114600480360381019061010f9190611205565b610399565b005b61011e610438565b60405161012b9190611291565b60405180910390f35b61014e60048036038101906101499190611318565b61045c565b60405161015c929190611382565b60405180910390f35b61016d610505565b60405161017a91906113cc565b60405180910390f35b61019d60048036038101906101989190611318565b61052b565b6040516101aa91906113e7565b60405180910390f35b6101cd60048036038101906101c89190611318565b6105d2565b6040516101db929190611492565b60405180910390f35b6101fe60048036038101906101f991906114c2565b61062c565b60405161020b91906114ef565b60405180910390f35b61022e6004803603810190610229919061150a565b6106d0565b60405161023b91906114ef565b60405180910390f35b61025e60048036038101906102599190611318565b6107be565b60405161026c929190611492565b60405180910390f35b61028f600480360381019061028a9190611318565b610876565b60405161029c9190611537565b60405180910390f35b6102bf60048036038101906102ba9190611318565b610921565b6040516102cc91906114ef565b60405180910390f35b6102ef60048036038101906102ea9190611318565b6109c8565b6040516102fc9190611568565b60405180910390f35b61031f600480360381019061031a9190611318565b610a6f565b60405161032d929190611382565b60405180910390f35b610350600480360381019061034b91906114c2565b610c53565b60405161035f9392919061159c565b60405180910390f35b610382600480360381019061037d91906115d3565b610d57565b604051610390929190611804565b60405180910390f35b600073ffffffffffffffffffffffffffffffffffffffff16600160009054906101000a900473ffffffffffffffffffffffffffffffffffffffff1673ffffffffffffffffffffffffffffffffffffffff16146103f457600080fd5b80600160006101000a81548173ffffffffffffffffffffffffffffffffffffffff021916908373ffffffffffffffffffffffffffffffffffffffff16021790555050565b60008054906101000a900473ffffffffffffffffffffffffffffffffffffffff1681565b60008060008054906101000a900473ffffffffffffffffffffffffffffffffffffffff1673ffffffffffffffffffffffffffffffffffffffff16632944908585856040518363ffffffff1660e01b81526004016104ba92919061184a565b6040805180830381865afa1580156104d6573d6000803e3d6000fd5b505050506040513d601f19601f820116820180604052508101906104fa91906118b4565b915091509250929050565b600160009054906101000a900473ffffffffffffffffffffffffffffffffffffffff1681565b60008060009054906101000a900473ffffffffffffffffffffffffffffffffffffffff1673ffffffffffffffffffffffffffffffffffffffff166344e87f9184846040518363ffffffff1660e01b815260040161058992919061184a565b602060405180830381865afa1580156105a6573d6000803e3d6000fd5b505050506040513d601f19601f820116820180604052508101906105ca91906118f4565b905092915050565b606060008060006105e38686610a6f565b915091508161060a5760006040518060200160405280600081525090935093505050610625565b6106148682610921565b92506106208684610876565b935050505b9250929050565b60008060009054906101000a900473ffffffffffffffffffffffffffffffffffffffff1673ffffffffffffffffffffffffffffffffffffffff166377b03e0d836040518263ffffffff1660e01b81526004016106889190611921565b602060405180830381865afa1580156106a5573d6000803e3d6000fd5b505050506040513d601f19601f820116820180604052508101906106c9919061193c565b9050919050565b6000806040516020016106e290611a12565b6040516020818303038152906040526040516020016107019190611a91565b6040516020818303038152906040529050600081805190602001209050600080610738836104b0426107339190611af5565b6107be565b91509150600081036107515760009450505050506107b9565b85814261075e9190611af5565b1061079e576040517f08c379a000000000000000000000000000000000000000000000000000000000815260040161079590611b75565b60405180910390fd5b818060200190518101906107b2919061193c565b9450505050505b919050565b606060008060009054906101000a900473ffffffffffffffffffffffffffffffffffffffff1673ffffffffffffffffffffffffffffffffffffffff1663a792765f85856040518363ffffffff1660e01b815260040161081e92919061184a565b600060405180830381865afa15801561083b573d6000803e3d6000fd5b505050506040513d6000823e3d601f19601f820116820180604052508101906108649190611cbb565b90915080925081935050509250929050565b606060008054906101000a900473ffffffffffffffffffffffffffffffffffffffff1673ffffffffffffffffffffffffffffffffffffffff1663c5958af984846040518363ffffffff1660e01b81526004016108d392919061184a565b600060405180830381865afa1580156108f0573d6000803e3d6000fd5b505050506040513d6000823e3d601f19601f820116820180604052508101906109199190611d2a565b905092915050565b60008060009054906101000a900473ffffffffffffffffffffffffffffffffffffffff1673ffffffffffffffffffffffffffffffffffffffff1663ce5e11bf84846040518363ffffffff1660e01b815260040161097f92919061184a565b602060405180830381865afa15801561099c573d6000803e3d6000fd5b505050506040513d601f19601f820116820180604052508101906109c0919061193c565b905092915050565b60008060009054906101000a900473ffffffffffffffffffffffffffffffffffffffff1673ffffffffffffffffffffffffffffffffffffffff1663e07c548684846040518363ffffffff1660e01b8152600401610a2692919061184a565b602060405180830381865afa158015610a43573d6000803e3d6000fd5b505050506040513d601f19601f82011682018060405250810190610a679190611d88565b905092915050565b6000806000610a7d8561062c565b905060008103610a94576000809250925050610c4c565b8080610a9f90611db5565b91505060006001905060008060008490506000610abc8a83610921565b9050888111610ad75760008097509750505050505050610c4c565b610ae18a84610921565b905088811115610af057600094505b5b8415610bb85760028383610b059190611dde565b610b0f9190611e41565b9350610b1b8a85610921565b905088811115610b65576000610b3d8b600187610b389190611af5565b610921565b9050898111610b4f5760009550610b5f565b600185610b5c9190611af5565b92505b50610bb3565b6000610b7d8b600187610b789190611dde565b610921565b905089811115610ba157600095508480610b9690611e72565b955050809150610bb1565b600185610bae9190611dde565b93505b505b610af1565b610bc28a8261052b565b610bd85760018497509750505050505050610c4c565b5b610be38a8261052b565b8015610bee57508584105b15610c12578380610bfe90611e72565b945050610c0b8a85610921565b9050610bd9565b8584148015610c275750610c268a8261052b565b5b15610c3e5760008097509750505050505050610c4c565b600184975097505050505050505b9250929050565b600080600080600160009054906101000a900473ffffffffffffffffffffffffffffffffffffffff1673ffffffffffffffffffffffffffffffffffffffff166387a475fd866040518263ffffffff1660e01b8152600401610cb49190611921565b602060405180830381865afa158015610cd1573d6000803e3d6000fd5b505050506040513d601f19601f82011682018060405250810190610cf59190611ecf565b90506060610d0f82600142610d0a9190611dde565b6107be565b809550819250505060008403610d32576000806101949450945094505050610d50565b6000610d3d8261112b565b9050809550858560c89550955095505050505b9193909250565b606080600080610d72888789610d6d9190611af5565b610a6f565b9150915081610e1f57600067ffffffffffffffff811115610d9657610d95611b9f565b5b604051908082528060200260200182016040528015610dc957816020015b6060815260200190600190039081610db45790505b50600067ffffffffffffffff811115610de557610de4611b9f565b5b604051908082528060200260200182016040528015610e135781602001602082028036833780820191505090505b50935093505050611122565b6000610e2b898961045c565b809250819450505082610edd57600067ffffffffffffffff811115610e5357610e52611b9f565b5b604051908082528060200260200182016040528015610e8657816020015b6060815260200190600190039081610e715790505b50600067ffffffffffffffff811115610ea257610ea1611b9f565b5b604051908082528060200260200182016040528015610ed05781602001602082028036833780820191505090505b5094509450505050611122565b60008060008867ffffffffffffffff811115610efc57610efb611b9f565b5b604051908082528060200260200182016040528015610f2a5781602001602082028036833780820191505090505b5090505b8883108015610f5357508482600186610f479190611dde565b610f519190611af5565b115b15610fc2576000610f6f8d8487610f6a9190611af5565b610921565b9050610f7b8d8261052b565b610fae5780828581518110610f9357610f92611efc565b5b6020026020010181815250508380610faa90611e72565b9450505b8280610fb990611e72565b93505050610f2e565b60008367ffffffffffffffff811115610fde57610fdd611b9f565b5b60405190808252806020026020018201604052801561101157816020015b6060815260200190600190039081610ffc5790505b50905060008467ffffffffffffffff8111156110305761102f611b9f565b5b60405190808252806020026020018201604052801561105e5781602001602082028036833780820191505090505b50905060005b8581101561111257838160018861107b9190611af5565b6110859190611af5565b8151811061109657611095611efc565b5b60200260200101518282815181106110b1576110b0611efc565b5b6020026020010181815250506110e18f8383815181106110d4576110d3611efc565b5b6020026020010151610876565b8382815181106110f4576110f3611efc565b5b6020026020010181905250808061110a90611e72565b915050611064565b5081819950995050505050505050505b94509492505050565b600080600090505b825181101561118d5782818151811061114f5761114e611efc565b5b602001015160f81c60f81b60f81c60ff166101008361116e9190611f2b565b6111789190611dde565b9150808061118590611e72565b915050611133565b50919050565b6000604051905090565b600080fd5b600080fd5b600073ffffffffffffffffffffffffffffffffffffffff82169050919050565b60006111d2826111a7565b9050919050565b6111e2816111c7565b81146111ed57600080fd5b50565b6000813590506111ff816111d9565b92915050565b60006020828403121561121b5761121a61119d565b5b6000611229848285016111f0565b91505092915050565b6000819050919050565b600061125761125261124d846111a7565b611232565b6111a7565b9050919050565b60006112698261123c565b9050919050565b600061127b8261125e565b9050919050565b61128b81611270565b82525050565b60006020820190506112a66000830184611282565b92915050565b6000819050919050565b6112bf816112ac565b81146112ca57600080fd5b50565b6000813590506112dc816112b6565b92915050565b6000819050919050565b6112f5816112e2565b811461130057600080fd5b50565b600081359050611312816112ec565b92915050565b6000806040838503121561132f5761132e61119d565b5b600061133d858286016112cd565b925050602061134e85828601611303565b9150509250929050565b60008115159050919050565b61136d81611358565b82525050565b61137c816112e2565b82525050565b60006040820190506113976000830185611364565b6113a46020830184611373565b9392505050565b60006113b68261125e565b9050919050565b6113c6816113ab565b82525050565b60006020820190506113e160008301846113bd565b92915050565b60006020820190506113fc6000830184611364565b92915050565b600081519050919050565b600082825260208201905092915050565b60005b8381101561143c578082015181840152602081019050611421565b60008484015250505050565b6000601f19601f8301169050919050565b600061146482611402565b61146e818561140d565b935061147e81856020860161141e565b61148781611448565b840191505092915050565b600060408201905081810360008301526114ac8185611459565b90506114bb6020830184611373565b9392505050565b6000602082840312156114d8576114d761119d565b5b60006114e6848285016112cd565b91505092915050565b60006020820190506115046000830184611373565b92915050565b6000602082840312156115205761151f61119d565b5b600061152e84828501611303565b91505092915050565b600060208201905081810360008301526115518184611459565b905092915050565b611562816111c7565b82525050565b600060208201905061157d6000830184611559565b92915050565b6000819050919050565b61159681611583565b82525050565b60006060820190506115b1600083018661158d565b6115be6020830185611373565b6115cb6040830184611373565b949350505050565b600080600080608085870312156115ed576115ec61119d565b5b60006115fb878288016112cd565b945050602061160c87828801611303565b935050604061161d87828801611303565b925050606061162e87828801611303565b91505092959194509250565b600081519050919050565b600082825260208201905092915050565b6000819050602082019050919050565b600082825260208201905092915050565b600061168282611402565b61168c8185611666565b935061169c81856020860161141e565b6116a581611448565b840191505092915050565b60006116bc8383611677565b905092915050565b6000602082019050919050565b60006116dc8261163a565b6116e68185611645565b9350836020820285016116f885611656565b8060005b85811015611734578484038952815161171585826116b0565b9450611720836116c4565b925060208a019950506001810190506116fc565b50829750879550505050505092915050565b600081519050919050565b600082825260208201905092915050565b6000819050602082019050919050565b61177b816112e2565b82525050565b600061178d8383611772565b60208301905092915050565b6000602082019050919050565b60006117b182611746565b6117bb8185611751565b93506117c683611762565b8060005b838110156117f75781516117de8882611781565b97506117e983611799565b9250506001810190506117ca565b5085935050505092915050565b6000604082019050818103600083015261181e81856116d1565b9050818103602083015261183281846117a6565b90509392505050565b611844816112ac565b82525050565b600060408201905061185f600083018561183b565b61186c6020830184611373565b9392505050565b61187c81611358565b811461188757600080fd5b50565b60008151905061189981611873565b92915050565b6000815190506118ae816112ec565b92915050565b600080604083850312156118cb576118ca61119d565b5b60006118d98582860161188a565b92505060206118ea8582860161189f565b9150509250929050565b60006020828403121561190a5761190961119d565b5b60006119188482850161188a565b91505092915050565b6000602082019050611936600083018461183b565b92915050565b6000602082840312156119525761195161119d565b5b60006119608482850161189f565b91505092915050565b600082825260208201905092915050565b7f6274630000000000000000000000000000000000000000000000000000000000600082015250565b60006119b0600383611969565b91506119bb8261197a565b602082019050919050565b7f7573640000000000000000000000000000000000000000000000000000000000600082015250565b60006119fc600383611969565b9150611a07826119c6565b602082019050919050565b60006040820190508181036000830152611a2b816119a3565b90508181036020830152611a3e816119ef565b9050919050565b7f53706f7450726963650000000000000000000000000000000000000000000000600082015250565b6000611a7b600983611969565b9150611a8682611a45565b602082019050919050565b60006040820190508181036000830152611aaa81611a6e565b90508181036020830152611abe8184611459565b905092915050565b7f4e487b7100000000000000000000000000000000000000000000000000000000600052601160045260246000fd5b6000611b00826112e2565b9150611b0b836112e2565b9250828203905081811115611b2357611b22611ac6565b5b92915050565b7f4d6178696d756d2074696d6520656c6170736564000000000000000000000000600082015250565b6000611b5f601483611969565b9150611b6a82611b29565b602082019050919050565b60006020820190508181036000830152611b8e81611b52565b9050919050565b600080fd5b600080fd5b7f4e487b7100000000000000000000000000000000000000000000000000000000600052604160045260246000fd5b611bd782611448565b810181811067ffffffffffffffff82111715611bf657611bf5611b9f565b5b80604052505050565b6000611c09611193565b9050611c158282611bce565b919050565b600067ffffffffffffffff821115611c3557611c34611b9f565b5b611c3e82611448565b9050602081019050919050565b6000611c5e611c5984611c1a565b611bff565b905082815260208101848484011115611c7a57611c79611b9a565b5b611c8584828561141e565b509392505050565b600082601f830112611ca257611ca1611b95565b5b8151611cb2848260208601611c4b565b91505092915050565b600080600060608486031215611cd457611cd361119d565b5b6000611ce28682870161188a565b935050602084015167ffffffffffffffff811115611d0357611d026111a2565b5b611d0f86828701611c8d565b9250506040611d208682870161189f565b9150509250925092565b600060208284031215611d4057611d3f61119d565b5b600082015167ffffffffffffffff811115611d5e57611d5d6111a2565b5b611d6a84828501611c8d565b91505092915050565b600081519050611d82816111d9565b92915050565b600060208284031215611d9e57611d9d61119d565b5b6000611dac84828501611d73565b91505092915050565b6000611dc0826112e2565b915060008203611dd357611dd2611ac6565b5b600182039050919050565b6000611de9826112e2565b9150611df4836112e2565b9250828201905080821115611e0c57611e0b611ac6565b5b92915050565b7f4e487b7100000000000000000000000000000000000000000000000000000000600052601260045260246000fd5b6000611e4c826112e2565b9150611e57836112e2565b925082611e6757611e66611e12565b5b828204905092915050565b6000611e7d826112e2565b91507fffffffffffffffffffffffffffffffffffffffffffffffffffffffffffffffff8203611eaf57611eae611ac6565b5b600182019050919050565b600081519050611ec9816112b6565b92915050565b600060208284031215611ee557611ee461119d565b5b6000611ef384828501611eba565b91505092915050565b7f4e487b7100000000000000000000000000000000000000000000000000000000600052603260045260246000fd5b6000611f36826112e2565b9150611f41836112e2565b9250828202611f4f816112e2565b91508282048414831517611f6657611f65611ac6565b5b509291505056fea2646970667358221220b6a4d395befac326486c607c43f3844b7748715294078295dee1b3a2941b6b0f64736f6c63430008130033",
  "linkReferences": {},
  "deployedLinkReferences": {}
}