{
  "_format": "hh-sol-artifact-1",
  "contractName": "TokenizedBallot",
  "sourceName": "contracts/TokenizedBallot.sol",
  "abi": [
    {
      "inputs": [
        {
          "internalType": "bytes32[]",
          "name": "proposalNames",
          "type": "bytes32[]"
        },
        {
          "internalType": "contract IMyVotingToken",
          "name": "_tokenContract",
          "type": "address"
        },
        {
          "internalType": "uint256",
          "name": "blocksQuantity",
          "type": "uint256"
        }
      ],
      "stateMutability": "nonpayable",
      "type": "constructor"
    },
    {
      "inputs": [],
      "name": "listProposal",
      "outputs": [
        {
          "internalType": "bytes32[]",
          "name": "",
          "type": "bytes32[]"
        }
      ],
      "stateMutability": "view",
      "type": "function"
    },
    {
      "inputs": [
        {
          "internalType": "uint256",
          "name": "",
          "type": "uint256"
        }
      ],
      "name": "proposals",
      "outputs": [
        {
          "internalType": "bytes32",
          "name": "name",
          "type": "bytes32"
        },
        {
          "internalType": "uint256",
          "name": "voteCount",
          "type": "uint256"
        }
      ],
      "stateMutability": "view",
      "type": "function"
    },
    {
      "inputs": [],
      "name": "targetBlockNumber",
      "outputs": [
        {
          "internalType": "uint256",
          "name": "",
          "type": "uint256"
        }
      ],
      "stateMutability": "view",
      "type": "function"
    },
    {
      "inputs": [],
      "name": "tokenContract",
      "outputs": [
        {
          "internalType": "contract IMyVotingToken",
          "name": "",
          "type": "address"
        }
      ],
      "stateMutability": "view",
      "type": "function"
    },
    {
      "inputs": [
        {
          "internalType": "uint256",
          "name": "proposal",
          "type": "uint256"
        },
        {
          "internalType": "uint256",
          "name": "amount",
          "type": "uint256"
        }
      ],
      "name": "vote",
      "outputs": [],
      "stateMutability": "nonpayable",
      "type": "function"
    },
    {
      "inputs": [
        {
          "internalType": "address",
          "name": "account",
          "type": "address"
        }
      ],
      "name": "votingPower",
      "outputs": [
        {
          "internalType": "uint256",
          "name": "",
          "type": "uint256"
        }
      ],
      "stateMutability": "view",
      "type": "function"
    },
    {
      "inputs": [
        {
          "internalType": "address",
          "name": "",
          "type": "address"
        }
      ],
      "name": "votingPowerSpent",
      "outputs": [
        {
          "internalType": "uint256",
          "name": "",
          "type": "uint256"
        }
      ],
      "stateMutability": "view",
      "type": "function"
    },
    {
      "inputs": [],
      "name": "winnerName",
      "outputs": [
        {
          "internalType": "bytes32",
          "name": "winnerName_",
          "type": "bytes32"
        }
      ],
      "stateMutability": "view",
      "type": "function"
    },
    {
      "inputs": [],
      "name": "winningProposal",
      "outputs": [
        {
          "internalType": "uint256",
          "name": "winningProposal_",
          "type": "uint256"
        }
      ],
      "stateMutability": "view",
      "type": "function"
    }
  ],
  "bytecode": "0x60806040523480156200001157600080fd5b5060405162001168380380620011688339818101604052810190620000379190620003a4565b816000806101000a81548173ffffffffffffffffffffffffffffffffffffffff021916908373ffffffffffffffffffffffffffffffffffffffff16021790555080436200008591906200044e565b60028190555060005b8351811015620001225760016040518060400160405280868481518110620000bb57620000ba62000489565b5b60200260200101518152602001600081525090806001815401808255809150506001900390600052602060002090600202016000909190919091506000820151816000015560208201518160010155505080806200011990620004b8565b9150506200008e565b5050505062000505565b6000604051905090565b600080fd5b600080fd5b600080fd5b6000601f19601f8301169050919050565b7f4e487b7100000000000000000000000000000000000000000000000000000000600052604160045260246000fd5b620001908262000145565b810181811067ffffffffffffffff82111715620001b257620001b162000156565b5b80604052505050565b6000620001c76200012c565b9050620001d5828262000185565b919050565b600067ffffffffffffffff821115620001f857620001f762000156565b5b602082029050602081019050919050565b600080fd5b6000819050919050565b62000223816200020e565b81146200022f57600080fd5b50565b600081519050620002438162000218565b92915050565b6000620002606200025a84620001da565b620001bb565b9050808382526020820190506020840283018581111562000286576200028562000209565b5b835b81811015620002b357806200029e888262000232565b84526020840193505060208101905062000288565b5050509392505050565b600082601f830112620002d557620002d462000140565b5b8151620002e784826020860162000249565b91505092915050565b600073ffffffffffffffffffffffffffffffffffffffff82169050919050565b60006200031d82620002f0565b9050919050565b6000620003318262000310565b9050919050565b620003438162000324565b81146200034f57600080fd5b50565b600081519050620003638162000338565b92915050565b6000819050919050565b6200037e8162000369565b81146200038a57600080fd5b50565b6000815190506200039e8162000373565b92915050565b600080600060608486031215620003c057620003bf62000136565b5b600084015167ffffffffffffffff811115620003e157620003e06200013b565b5b620003ef86828701620002bd565b9350506020620004028682870162000352565b925050604062000415868287016200038d565b9150509250925092565b7f4e487b7100000000000000000000000000000000000000000000000000000000600052601160045260246000fd5b60006200045b8262000369565b9150620004688362000369565b92508282019050808211156200048357620004826200041f565b5b92915050565b7f4e487b7100000000000000000000000000000000000000000000000000000000600052603260045260246000fd5b6000620004c58262000369565b91507fffffffffffffffffffffffffffffffffffffffffffffffffffffffffffffffff8203620004fa57620004f96200041f565b5b600182019050919050565b610c5380620005156000396000f3fe608060405234801561001057600080fd5b50600436106100935760003560e01c8063a720035111610066578063a720035114610123578063b24b274814610153578063b384abef14610171578063c07473f61461018d578063e2ba53f0146101bd57610093565b8063013cf08b146100985780632a8cd29e146100c957806355a373d6146100e7578063609ff1bd14610105575b600080fd5b6100b260048036038101906100ad9190610658565b6101db565b6040516100c09291906106ad565b60405180910390f35b6100d161020f565b6040516100de91906106d6565b60405180910390f35b6100ef610215565b6040516100fc9190610770565b60405180910390f35b61010d610239565b60405161011a91906106d6565b60405180910390f35b61013d600480360381019061013891906107c9565b6102c1565b60405161014a91906106d6565b60405180910390f35b61015b6102d9565b60405161016891906108b4565b60405180910390f35b61018b600480360381019061018691906108d6565b61039d565b005b6101a760048036038101906101a291906107c9565b6104c5565b6040516101b491906106d6565b60405180910390f35b6101c56105d0565b6040516101d29190610916565b60405180910390f35b600181815481106101eb57600080fd5b90600052602060002090600202016000915090508060000154908060010154905082565b60025481565b60008054906101000a900473ffffffffffffffffffffffffffffffffffffffff1681565b6000806000905060005b6001805490508110156102bc57816001828154811061026557610264610931565b5b90600052602060002090600202016001015411156102a9576001818154811061029157610290610931565b5b90600052602060002090600202016001015491508092505b80806102b49061098f565b915050610243565b505090565b60036020528060005260406000206000915090505481565b6060600060018054905067ffffffffffffffff8111156102fc576102fb6109d7565b5b60405190808252806020026020018201604052801561032a5781602001602082028036833780820191505090505b50905060005b600180549050811015610395576001818154811061035157610350610931565b5b90600052602060002090600202016000015482828151811061037657610375610931565b5b602002602001018181525050808061038d9061098f565b915050610330565b508091505090565b60018054905082106103e4576040517f08c379a00000000000000000000000000000000000000000000000000000000081526004016103db90610a89565b60405180910390fd5b806103ee336104c5565b101561042f576040517f08c379a000000000000000000000000000000000000000000000000000000000815260040161042690610b1b565b60405180910390fd5b80600360003373ffffffffffffffffffffffffffffffffffffffff1673ffffffffffffffffffffffffffffffffffffffff168152602001908152602001600020600082825461047e9190610b3b565b92505081905550806001838154811061049a57610499610931565b5b906000526020600020906002020160010160008282546104ba9190610b3b565b925050819055505050565b6000806104e06002546001436104db9190610b6f565b610604565b9050600360008473ffffffffffffffffffffffffffffffffffffffff1673ffffffffffffffffffffffffffffffffffffffff1681526020019081526020016000205460008054906101000a900473ffffffffffffffffffffffffffffffffffffffff1673ffffffffffffffffffffffffffffffffffffffff16633a46b1a885846040518363ffffffff1660e01b815260040161057d929190610bb2565b602060405180830381865afa15801561059a573d6000803e3d6000fd5b505050506040513d601f19601f820116820180604052508101906105be9190610bf0565b6105c89190610b6f565b915050919050565b600060016105dc610239565b815481106105ed576105ec610931565b5b906000526020600020906002020160000154905090565b60008183106106135781610615565b825b905092915050565b600080fd5b6000819050919050565b61063581610622565b811461064057600080fd5b50565b6000813590506106528161062c565b92915050565b60006020828403121561066e5761066d61061d565b5b600061067c84828501610643565b91505092915050565b6000819050919050565b61069881610685565b82525050565b6106a781610622565b82525050565b60006040820190506106c2600083018561068f565b6106cf602083018461069e565b9392505050565b60006020820190506106eb600083018461069e565b92915050565b600073ffffffffffffffffffffffffffffffffffffffff82169050919050565b6000819050919050565b600061073661073161072c846106f1565b610711565b6106f1565b9050919050565b60006107488261071b565b9050919050565b600061075a8261073d565b9050919050565b61076a8161074f565b82525050565b60006020820190506107856000830184610761565b92915050565b6000610796826106f1565b9050919050565b6107a68161078b565b81146107b157600080fd5b50565b6000813590506107c38161079d565b92915050565b6000602082840312156107df576107de61061d565b5b60006107ed848285016107b4565b91505092915050565b600081519050919050565b600082825260208201905092915050565b6000819050602082019050919050565b61082b81610685565b82525050565b600061083d8383610822565b60208301905092915050565b6000602082019050919050565b6000610861826107f6565b61086b8185610801565b935061087683610812565b8060005b838110156108a757815161088e8882610831565b975061089983610849565b92505060018101905061087a565b5085935050505092915050565b600060208201905081810360008301526108ce8184610856565b905092915050565b600080604083850312156108ed576108ec61061d565b5b60006108fb85828601610643565b925050602061090c85828601610643565b9150509250929050565b600060208201905061092b600083018461068f565b92915050565b7f4e487b7100000000000000000000000000000000000000000000000000000000600052603260045260246000fd5b7f4e487b7100000000000000000000000000000000000000000000000000000000600052601160045260246000fd5b600061099a82610622565b91507fffffffffffffffffffffffffffffffffffffffffffffffffffffffffffffffff82036109cc576109cb610960565b5b600182019050919050565b7f4e487b7100000000000000000000000000000000000000000000000000000000600052604160045260246000fd5b600082825260208201905092915050565b7f546f6b656e697a656442616c6c6f743a20696e76616c69642070726f706f736160008201527f6c00000000000000000000000000000000000000000000000000000000000000602082015250565b6000610a73602183610a06565b9150610a7e82610a17565b604082019050919050565b60006020820190508181036000830152610aa281610a66565b9050919050565b7f546f6b656e697a656442616c6c6f743a20747279696e6720746f20766f74652060008201527f6d6f7265207468616e20616c6c6f776564000000000000000000000000000000602082015250565b6000610b05603183610a06565b9150610b1082610aa9565b604082019050919050565b60006020820190508181036000830152610b3481610af8565b9050919050565b6000610b4682610622565b9150610b5183610622565b9250828201905080821115610b6957610b68610960565b5b92915050565b6000610b7a82610622565b9150610b8583610622565b9250828203905081811115610b9d57610b9c610960565b5b92915050565b610bac8161078b565b82525050565b6000604082019050610bc76000830185610ba3565b610bd4602083018461069e565b9392505050565b600081519050610bea8161062c565b92915050565b600060208284031215610c0657610c0561061d565b5b6000610c1484828501610bdb565b9150509291505056fea2646970667358221220e5ce861d6f6f74dcf47de0c91cb3b96ef75f811c859139070c3b98178ac3c0fb64736f6c63430008130033",
  "linkReferences": {},
  "deployedLinkReferences": {}
}